:020000040000fa
:080000000002040000000000f2
:020000040000fa
:04000800fa020000f8
:020000040000fa
:04000c003c030000b1
:020000040000fa
:040010009c0300004d
:020000040000fa
:040014001a030000cb
:020000040000fa
:040018005c03000085
:020000040000fa
:04001c007c03000061
:020000040000fa
:04002000bc0300001d
:020000040000fa
:04002400e8030000ed
:020000040000fa
:04002800e8030000e9
:020000040000fa
:04002c00e8030000e5
:020000040000fa
:04003000e8030000e1
:020000040000fa
:04003400e8030000dd
:020000040000fa
:04003800e8030000d9
:020000040000fa
:04003c00e8030000d5
:020000040000fa
:04004000e8030000d1
:020000040000fa
:04004400e8030000cd
:020000040000fa
:04004800e8030000c9
:020000040000fa
:04004c00e8030000c5
:020000040000fa
:04005000e8030000c1
:020000040000fa
:04005400e8030000bd
:020000040000fa
:04005800e8030000b9
:020000040000fa
:04005c00e8030000b5
:020000040000fa
:04006000e8030000b1
:020000040000fa
:04006400e8030000ad
:020000040000fa
:04006800e8030000a9
:020000040000fa
:04006c00e8030000a5
:020000040000fa
:04007000e8030000a1
:020000040000fa
:04007400e80300009d
:020000040000fa
:04007800e803000099
:020000040000fa
:04007c00e803000095
:020000040000fa
:04008000e803000091
:020000040000fa
:04008400e80300008d
:020000040000fa
:04008800e803000089
:020000040000fa
:04008c00e803000085
:020000040000fa
:04009000e803000081
:020000040000fa
:04009400e80300007d
:020000040000fa
:04009800e803000079
:020000040000fa
:04009c00e803000075
:020000040000fa
:0400a000e803000071
:020000040000fa
:0400a400e80300006d
:020000040000fa
:0400a800e803000069
:020000040000fa
:0400ac00e803000065
:020000040000fa
:0400b000e803000061
:020000040000fa
:0400b400e80300005d
:020000040000fa
:0400b800e803000059
:020000040000fa
:0400bc00e803000055
:020000040000fa
:0400c000e803000051
:020000040000fa
:0400c400e80300004d
:020000040000fa
:0400c800e803000049
:020000040000fa
:0400cc00e803000045
:020000040000fa
:0400d000e803000041
:020000040000fa
:0400d400e80300003d
:020000040000fa
:0400d800e803000039
:020000040000fa
:0400dc00e803000035
:020000040000fa
:0400e000e803000031
:020000040000fa
:0400e400e80300002d
:020000040000fa
:0400e800e803000029
:020000040000fa
:0400ec00e803000025
:020000040000fa
:0400f000e803000021
:020000040000fa
:0400f400e80300001d
:020000040000fa
:0400f800e803000019
:020000040000fa
:0400fc00e803000015
:020000040000fa
:04010000e803000010
:020000040000fa
:04010400e80300000c
:020000040000fa
:04010800e803000008
:020000040000fa
:04010c00e803000004
:020000040000fa
:04011000e803000000
:020000040000fa
:04011400e8030000fc
:020000040000fa
:04011800e8030000f8
:020000040000fa
:04011c00e8030000f4
:020000040000fa
:04012000e8030000f0
:020000040000fa
:04012400e8030000ec
:020000040000fa
:04012800e8030000e8
:020000040000fa
:04012c00e8030000e4
:020000040000fa
:04013000e8030000e0
:020000040000fa
:04013400e8030000dc
:020000040000fa
:04013800e8030000d8
:020000040000fa
:04013c00e8030000d4
:020000040000fa
:04014000e8030000d0
:020000040000fa
:04014400e8030000cc
:020000040000fa
:04014800e8030000c8
:020000040000fa
:04014c00e8030000c4
:020000040000fa
:04015000e8030000c0
:020000040000fa
:04015400e8030000bc
:020000040000fa
:04015800e8030000b8
:020000040000fa
:04015c00e8030000b4
:020000040000fa
:04016000e8030000b0
:020000040000fa
:04016400e8030000ac
:020000040000fa
:04016800e8030000a8
:020000040000fa
:04016c00e8030000a4
:020000040000fa
:04017000e8030000a0
:020000040000fa
:04017400e80300009c
:020000040000fa
:04017800e803000098
:020000040000fa
:04017c00e803000094
:020000040000fa
:04018000e803000090
:020000040000fa
:04018400e80300008c
:020000040000fa
:04018800e803000088
:020000040000fa
:04018c00e803000084
:020000040000fa
:04019000e803000080
:020000040000fa
:04019400e80300007c
:020000040000fa
:04019800e803000078
:020000040000fa
:04019c00e803000074
:020000040000fa
:0401a000e803000070
:020000040000fa
:0401a400e80300006c
:020000040000fa
:0401a800e803000068
:020000040000fa
:0401ac00e803000064
:020000040000fa
:0401b000e803000060
:020000040000fa
:0401b400e80300005c
:020000040000fa
:0401b800e803000058
:020000040000fa
:0401bc00e803000054
:020000040000fa
:0401c000e803000050
:020000040000fa
:0401c400e80300004c
:020000040000fa
:0401c800e803000048
:020000040000fa
:0401cc00e803000044
:020000040000fa
:0401d000e803000040
:020000040000fa
:0401d400e80300003c
:020000040000fa
:0401d800e803000038
:020000040000fa
:0401dc00e803000034
:020000040000fa
:0401e000e803000030
:020000040000fa
:0401e400e80300002c
:020000040000fa
:0401e800e803000028
:020000040000fa
:0401ec00e803000024
:020000040000fa
:0401f000e803000020
:020000040000fa
:0401f400e80300001c
:020000040000fa
:0401f800e803000018
:020000040000fa
:0401fc00e803000014
:020000040000fa
:04020000e80300000f
:020000040000fa
:04020400e80300000b
:020000040000fa
:04020800e803000007
:020000040000fa
:04020c00e803000003
:020000040000fa
:04021000e8030000ff
:020000040000fa
:04021400e8030000fb
:020000040000fa
:04021800e8030000f7
:020000040000fa
:04021c00e8030000f3
:020000040000fa
:04022000e8030000ef
:020000040000fa
:04022400e8030000eb
:020000040000fa
:04022800e8030000e7
:020000040000fa
:04022c00e8030000e3
:020000040000fa
:04023000e8030000df
:020000040000fa
:04023400e8030000db
:020000040000fa
:04023800e8030000d7
:020000040000fa
:04023c00e8030000d3
:020000040000fa
:04024000e8030000cf
:020000040000fa
:04024400e8030000cb
:020000040000fa
:04024800e8030000c7
:020000040000fa
:04024c00e8030000c3
:020000040000fa
:04025000e8030000bf
:020000040000fa
:04025400e8030000bb
:020000040000fa
:04025800e8030000b7
:020000040000fa
:04025c00e8030000b3
:020000040000fa
:04026000e8030000af
:020000040000fa
:04026400e8030000ab
:020000040000fa
:04026800e8030000a7
:020000040000fa
:04026c00e8030000a3
:020000040000fa
:04027000e80300009f
:020000040000fa
:04027400e80300009b
:020000040000fa
:04027800e803000097
:020000040000fa
:04027c00e803000093
:020000040000fa
:04028000e80300008f
:020000040000fa
:100400002f0221000eff28000e01880000000000ce
:10041000000020000000e000020032000001200087
:100420002002880014000700eb0007000000e00035
:1004300003003a0060602000010020000200370045
:100440000000200001002000810f70000100320038
:100450000f000700000020000000e0000200320052
:1004600000000200000000001c0602000000000066
:100470000040da000000fe00200020000000e00044
:1004800002003200100020009001880000000600e9
:10049000a1028800800478000000eb001f003700f4
:1004a000e284440054a0b4009905ba00e2844400f8
:1004b00054a0b4009906ba00e284440054a0b400e9
:1004c0000006eb00476fde00fd07b200ae018800ba
:1004d000636ce10003003a000ad801000000eb0061
:1004e0000e003700606ce10008003a00004deb00a0
:1004f0000a05e800020039003420ec000af0a000f0
:100500008b05e900f9ff3e00040037006168e10057
:10051000010032000086eb000b00070019c7ba008b
:100520000e04e0001905ba0003003a000a00e000da
:10053000dbff3a0000000600fe07b200ae028800b2
:100540008a047800f5ff37000cd0a300e20f4d00bd
:100550001c003b0089027800354dba000a05e8000e
:10056000020039003420ec000af0a0008b05e900fd
:100570000f003200254dba000a05e80002003900dc
:100580003420ec000af0a0008b05e90008003200de
:100590000c00e0000600320015cdba000a05e800a4
:1005a000020039003420ec000af0a0008b05e900bd
:1005b0008984e80054a0b4000b00e000e2ff3a0098
:1005c000000006009902ba00055d78008b05e9007d
:1005d000f7ff3200c82ade00055d78008b05e900d0
:1005e000f3ff32000c00e000f1ff320019ddba0029
:1005f000eeff37003600f800809fbe00829fbe00ed
:10060000849fbe00869fbe000000fa00c028a9009b
:100610000000eb00710107000080fa004f03be00ec
:100620004f02be004f01be004f00be003600f90071
:10063000004006003600f800809fbe00829fbe008a
:10064000849fbe00869fbe000000fa00680107007c
:10065000c048a90010002000600107000080fa00d7
:100660004f03be004f02be004f01be004f00be0050
:100670003600f900004006003600f800809fbe00fa
:10068000829fbe00849fbe00869fbe000000fa00cd
:10069000c068a90020002000500107000080fa0077
:1006a0004f03be004f02be004f01be004f00be0010
:1006b0003600f900004006003600f800809fbe00ba
:1006c000829fbe00849fbe00869fbe000000fa008d
:1006d000c088a90030002000400107000080fa0017
:1006e0004f03be004f02be004f01be004f00be00d0
:1006f0003600f900004006003600f800809fbe007a
:10070000829fbe00849fbe00869fbe000000fa004c
:10071000c0a8a90040002000300107000080fa00b6
:100720004f03be004f02be004f01be004f00be008f
:100730003600f900004006003600f800809fbe0039
:10074000829fbe00849fbe00869fbe000000fa000c
:10075000c608a90070002000200107000080fa00f0
:100760004f03be004f02be004f01be004f00be004f
:100770003600f900004006003600f800809fbe00f9
:10078000829fbe00849fbe00869fbe000000fa00cc
:100790002146800000022000008060000000e00090
:1007a00003003200c4a8a900900020000b0107003c
:1007b00020468000700060000000e000030032006e
:1007c000c488a900a000200004010700ffff370033
:0c07d0000040da000000fe000000050000
:020000040000fa
:1007dc000000fa00003a80000080fa0000000600d9
:1007ec000200fa00faff0700000f78001e007800e4
:1007fc00240007000004e000020032000000280082
:10080c007d0007001e0078002c0007000004e000ab
:10081c000200320000002400770007001e00780060
:10082c00360007000004e000020032000020200027
:10083c00710007001e007800400007000004e00073
:10084c0002003200000820006b0007001e00780038
:10085c004a0007000004e0000200320000042000ff
:10086c00650007001e007800540007000004e0003b
:10087c0002003200000120005f0007000080fa0037
:10088c00000006000400fa008e80e8008008780062
:10089c000040eb00004f78000e80e800100078005c
:1008ac000000e00002003d0010c0b300004f7800d3
:1008bc001e4078000080fa00000006000400fa00d8
:1008cc008e80e800800878000040eb00004f780034
:1008dc000e80e8009000780000002400008060008a
:1008ec000000e0000200320010c0b300004f78009e
:1008fc001e4078000080fa00000006000400fa0098
:10090c008e80e800800878000040eb00004f7800f3
:10091c000e80e8009000780000202000008060002d
:10092c000000e0000200320010c0b300004f78005d
:10093c001e4078000080fa00000006000400fa0057
:10094c008e80e800800878000040eb00004f7800b3
:10095c000e80e80090007800000820000080600005
:10096c000000e0000200320010c0b300004f78001d
:10097c001e4078000080fa00000006000400fa0017
:10098c008e80e800800878000040eb00004f780073
:10099c000e80e800900078000004200000806000c9
:1009ac000000e0000200320010c0b300004f7800dd
:1009bc001e4078000080fa00000006000400fa00d7
:1009cc008e80e800800878000040eb00004f780033
:1009dc000e80e80010007800700060000000e0005d
:1009ec000200320010c0b300004f78001e407800a7
:1009fc000080fa00000006000200fa00000f7800e8
:100a0c001e80ea00013a800001006000003a880074
:100a1c000080fa00000006000000fa004027ef00fa
:100a2c000080fa00000006000000fa00042eef001f
:100a3c00142eef00242eef00342eef00442eef0086
:100a4c00542eef00642eef0030f921000070880066
:100a5c000080eb0080708800f0ff2300007188009c
:100a6c00001620008071880000002f0000728800a2
:100a7c003000200080728800003c20000073880049
:100a8c000c2eef001c2eef002c2eef003c2eef0056
:100a9c004c2eef005c2eef006c2eef000a2eef00b8
:100aac001a2eef002a2eef003a2eef004a2eef00fe
:100abc005a2eef006a2eef00062eef00162eef00d6
:100acc00262eef00362eef00462eef00562eef00ae
:100adc00662eef00308121007070880030102000ed
:100aec00f0708800708020007071880000002f006a
:100afc00707288000080fa00000006000000fa0006
:100b0c0000142300203a88004827ef004e27ef00fe
:100b1c0020032000303a88006027ef006227ef00a6
:100b2c006427ef006627ef006a27ef006c27ef00c1
:100b3c007200200080072000a109200033742000df
:100b4c008049780081497800824978000001eb00e7
:100b5c006004200071052000237420008049780077
:100b6c0081497800824978000080fa000000060074
:100b7c000200fa00000f780021028000200f2000f4
:100b8c00008060001e007000200288000080fa00c7
:100b9c00000006000000fa00c3e8a80000000000f6
:100bac00000000000080fa00000006000000fa00bf
:100bbc009dff07001a000700d0ff0700f5ff070094
:100bcc0000022000eaff07000080fa000000060087
:100bdc000200fa00000f78009e0078000180880067
:100bec00ffff37000000fa0020002100800778008a
:100bfc00a0012100000188000080fa00000006001e
:020000040000fa
:100c0c000210000020000000800000000010000016
:100c1c000200000082000000ffff00000000000046
:020000040000fa
:100c2c000000fa000080fa00000006000000fa0044
:080c3c00deff0700ffff370097
:020000040000fa
:020000040005f5
:045fe000cfff0000ef
:020000040000fa
:020000040005f5
:045fe400ffff0000bb
:020000040000fa
:020000040005f5
:045fe8007fff000037
:020000040000fa
:020000040005f5
:045fec00bfff0000f3
:020000040000fa
:020000040005f5
:045ff0007fff00002f
:020000040000fa
:020000040005f5
:045ff400ffffff00ac
:00000001FF
